:0400000002001132B7
:03000B00020145AA
:03006A0002000E83
:03000E0002006D80
:20006D0075415575425075B10075B204C2B2753B00753D00C2041201B4E4F53FF540E53F3C
:20008D002441F9E7FF600F8F821201A8053FE4B53FEC054080E810030302013285223CE50C
:2000AD003B24FC5003020132E53B75F003A49000BF730200CB0200DA0200E802010474A0B4
:2000CD00B53C028003020132053B0201327401B53C04053B804F753B00804A7401B53C0298
:2000ED008009E53C60057402B53C07053B853C3D8033753B00802E74A2B53C0B7401B53DAE
:20010D0006D2B2D204801B74A1B53C0AE53D7006C2B2D204800C74A3B53C077402B53D02E0
:20012D00D204753B001004030200A3A2B2E433F5821201A80200A322C0E0C0D0300120D5B6
:20014D002628752603D52809852422C201D2038019E524C313F52430B010432480800B202A
:20016D00B008D201752604752809D52529752503300023E527700AC2B185212375270980A8
:20018D0015E523C313F523D52708D2B1C200D2028004A2D792B1D0D0D0E032AF8210020223
:2001AD0080FB8F21D20022759850C2AFC2B9C2A9C28C758900758E80758A80758CFED28CB4
:1501CD00D2A9D2B9D2AFC200C201D202C2037525007526002221
:06004000E4787FF6D8FD14
:20001E007900E94400601B7A009001E6780175A000E493F2A308B8000205A0D9F4DAF275A1
:02003E00A0FF21
:200046007800E84400600A790175A000E4F309D8FC7800E84400600C7900900001E4F0A3B8
:04006600D8FCD9FAEF
:0D0011007581421201E2E582600302000EDB
:0401E2007582002200
:00000001FF
